:020000040000fa
:080000000001040000000000f3
:020000040000fa
:040008007c04000074
:020000040000fa
:04000c009404000058
:020000040000fa
:04001000a804000040
:020000040000fa
:04001400860400005e
:020000040000fa
:040018009e04000042
:020000040000fa
:04001c00f0040000ec
:020000040000fa
:04002000f0040000e8
:020000040000fa
:04002400f0040000e4
:020000040000fa
:04002800f0040000e0
:020000040000fa
:04002c00f0040000dc
:020000040000fa
:04003000f0040000d8
:020000040000fa
:040034005204000072
:020000040000fa
:04003800f0040000d0
:020000040000fa
:04003c00f0040000cc
:020000040000fa
:04004000f0040000c8
:020000040000fa
:04004400f0040000c4
:020000040000fa
:04004800f0040000c0
:020000040000fa
:04004c00f0040000bc
:020000040000fa
:04005000f0040000b8
:020000040000fa
:04005400cc040000d8
:020000040000fa
:04005800b2040000ee
:020000040000fa
:04005c00f0040000ac
:020000040000fa
:04006000f0040000a8
:020000040000fa
:04006400f0040000a4
:020000040000fa
:04006800f0040000a0
:020000040000fa
:04006c00f00400009c
:020000040000fa
:04007000f004000098
:020000040000fa
:040074000c04000078
:020000040000fa
:04007800f004000090
:020000040000fa
:04007c00f00400008c
:020000040000fa
:04008000f004000088
:020000040000fa
:04008400f004000084
:020000040000fa
:04008800f004000080
:020000040000fa
:04008c00f00400007c
:020000040000fa
:04009000f004000078
:020000040000fa
:04009400f004000074
:020000040000fa
:04009800f004000070
:020000040000fa
:04009c00f00400006c
:020000040000fa
:0400a000f004000068
:020000040000fa
:0400a400f004000064
:020000040000fa
:0400a800f004000060
:020000040000fa
:0400ac00f00400005c
:020000040000fa
:0400b000f004000058
:020000040000fa
:0400b400f004000054
:020000040000fa
:0400b800f004000050
:020000040000fa
:0400bc00f00400004c
:020000040000fa
:0400c000f004000048
:020000040000fa
:0400c400f004000044
:020000040000fa
:0400c800f004000040
:020000040000fa
:0400cc00f00400003c
:020000040000fa
:0400d000f004000038
:020000040000fa
:0400d400f004000034
:020000040000fa
:0400d800f004000030
:020000040000fa
:0400dc00f00400002c
:020000040000fa
:0400e000f004000028
:020000040000fa
:0400e400f004000024
:020000040000fa
:0400e800f004000020
:020000040000fa
:0400ec00f20300001b
:020000040000fa
:0400f000d803000031
:020000040000fa
:0400f400f004000014
:020000040000fa
:0400f800f004000010
:020000040000fa
:0400fc00f00400000c
:020000040000fa
:04010000f004000007
:020000040000fa
:04010400f004000003
:020000040000fa
:04010800f0040000ff
:020000040000fa
:04010c00f0040000fb
:020000040000fa
:04011000f0040000f7
:020000040000fa
:04011400f0040000f3
:020000040000fa
:04011800f0040000ef
:020000040000fa
:04011c00f0040000eb
:020000040000fa
:04012000f0040000e7
:020000040000fa
:04012400f0040000e3
:020000040000fa
:04012800f0040000df
:020000040000fa
:04012c00e6040000e5
:020000040000fa
:04013000f0040000d7
:020000040000fa
:04013400f0040000d3
:020000040000fa
:04013800f0040000cf
:020000040000fa
:04013c00f0040000cb
:020000040000fa
:04014000f0040000c7
:020000040000fa
:04014400f0040000c3
:020000040000fa
:04014800f0040000bf
:020000040000fa
:04014c00f0040000bb
:020000040000fa
:04015000f0040000b7
:020000040000fa
:04015400f0040000b3
:020000040000fa
:04015800f0040000af
:020000040000fa
:04015c00f0040000ab
:020000040000fa
:04016000f0040000a7
:020000040000fa
:04016400f0040000a3
:020000040000fa
:04016800f00400009f
:020000040000fa
:04016c00f00400009b
:020000040000fa
:04017000f004000097
:020000040000fa
:04017400f004000093
:020000040000fa
:04017800f00400008f
:020000040000fa
:04017c00f00400008b
:020000040000fa
:04018000f004000087
:020000040000fa
:04018400f004000083
:020000040000fa
:04018800f00400007f
:020000040000fa
:04018c00f00400007b
:020000040000fa
:04019000f004000077
:020000040000fa
:04019400f004000073
:020000040000fa
:04019800f00400006f
:020000040000fa
:04019c00f00400006b
:020000040000fa
:0401a000f004000067
:020000040000fa
:0401a400f004000063
:020000040000fa
:0401a800f00400005f
:020000040000fa
:0401ac00f00400005b
:020000040000fa
:0401b000f004000057
:020000040000fa
:0401b400f004000053
:020000040000fa
:0401b800f00400004f
:020000040000fa
:0401bc00f00400004b
:020000040000fa
:0401c000f004000047
:020000040000fa
:0401c400f004000043
:020000040000fa
:0401c800f00400003f
:020000040000fa
:0401cc00f00400003b
:020000040000fa
:0401d000f004000037
:020000040000fa
:0401d400f004000033
:020000040000fa
:0401d800f00400002f
:020000040000fa
:0401dc00f00400002b
:020000040000fa
:0401e000f004000027
:020000040000fa
:0401e400f004000023
:020000040000fa
:0401e800f00400001f
:020000040000fa
:0401ec00f00400001b
:020000040000fa
:0401f000f004000017
:020000040000fa
:0401f400f004000013
:020000040000fa
:0401f800f00400000f
:020000040000fa
:0401fc00f00400000b
:020000040000fa
:100200008f3923000e7f24000e01880000000000bb
:10021000000020000000e000020032000001200089
:1002200020028800140007002b0207000000e000f5
:1002300003003a0040e125000100200002003700e1
:100240000000200001002000810f7000010032003a
:1002500014000700000020000000e000020032004f
:100260000000020000000000244302000100000022
:100270000040da000000fe004440a90000c6220051
:100280000000e00003003200002020009001880000
:100290004440a800000006008a1f78008b1f7800e9
:1002a00000000600a1028800800478000000eb0036
:1002b0001f003700e284440054a0b4009905ba003e
:1002c000e284440054a0b4009906ba00e2844400d9
:1002d00054a0b4000006eb00476fde00fd07b2003b
:1002e000ae018800636ce10003003a00eaff0700fa
:1002f0000000eb000e003700606ce10008003a00df
:10030000004deb000a05e800020039003420ec0043
:100310000af0a0008b05e900f9ff3e000400370059
:100320006168e100010032000086eb000b0007006d
:1003300019c7ba001905ba000e04e00003003a001c
:100340000a00e000dbff3a0000000600fe07b200f2
:10035000ae0288008a047800f5ff37000cd0a300b5
:10036000e20f4d001c00390089027800354dba00bb
:100370000a05e800020039003420ec000af0a00071
:100380008b05e9000f003200254dba000a05e80090
:10039000020039003420ec000af0a0008b05e900cf
:1003a000080032000c00e0000600320015cdba0053
:1003b0000a05e800020039003420ec000af0a00031
:1003c0008b05e9008984e80054a0b4000b00e0002c
:1003d000e2ff3a00000006009902ba00055d7800cd
:1003e0008b05e900f7ff3200c82ade00055d7800c2
:1003f0008b05e900f3ff32000c00e000f1ff320052
:1004000019ddba00eeff370098500400010000002b
:100410005a16040001000000104e04000100000004
:100420003c4b04000100000028de04000000000036
:10043000c641040001000000464304000100000022
:100440002c4b0400010000001c4b040001000000c4
:10045000842d0400010000005aca040000000000be
:1004600062f20400000000004abe04000000000028
:10047000244f0400010000006cb6040000000000de
:100480002cec0400000000006605040001000000e0
:100490003029040001000000521404000100000093
:1004a00016f00400000000009a5004000100000053
:1004b0002a4f040001000000f49e04000000000028
:1004c000ce18040001000000b4a9040000000000e0
:1004d0008643040001000000d6140400010000005f
:1004e00086af040000000000269504000000000014
:1004f000e444040001000000c644040001000000c0
:100500002e410400010000006634040001000000d8
:1005100038d6040000000000a03c040001000000e8
:10052000244e040001000000564d040001000000ac
:100530001a4e040001000000aaa6040000000000fa
:10054000f84f040001000000fc4f0400010000000f
:100550006e4d040001000000ac4b040001000000df
:100560007448040001000000de33040001000000b4
:100570005e4804000100000000500400010000007b
:100580001850040001000000145004000100000095
:100590007a4d0400010000007a4a040001000000c6
:1005a000684a0400010000006431040001000000fa
:1005b0002637040001000000864d04000100000001
:1005c0000a3e040001000000964e040001000000f5
:1005d0008e4e040001000000864e04000100000061
:1005e0007e4e040001000000764e04000100000071
:1005f0006e4e040001000000664e04000100000081
:10060000dc4b040001000000c643040001000000b0
:100610000c50040001000000105004000100000014
:100620003c4f040001000000363e040001000000c1
:10063000d44a040001000000c24a04000100000086
:10064000b04a0400010000009e4a040001000000be
:10065000a0480400010000007850040001000000e0
:10066000ae4e040001000000e64d04000100000051
:100670005647040001000000044804000100000087
:100680006644040001000000cc4f0400010000009b
:100690007c500400010000008050040001000000b4
:1006a000ac4c0400010000001c50040001000000dc
:1006b0007a410400010000007047040001000000be
:1006c0005642040001000000b6460400010000008c
:1006d000484d04000100000090500400010000009b
:1006e0006237040001000000945004000100000083
:1006f000e8490400010000009039040001000000f6
:10070000c43a040001000000be4e040001000000d5
:100710003e450400010000002e4e040001000000d0
:10072000c64e040001000000ce4e0400010000008f
:10073000424f0400010000009c5004000100000032
:10074000f8210400010000005a2404000100000008
:10075000808504000000000094790400000000007f
:100760001a31040001000000424e040001000000a4
:100770009ef70400000000008c4c04000100000003
:100780009c4c040001000000a05004000100000087
:10079000a250040001000000d84f04000100000036
:1007a000de4f0400010000008a4704000100000041
:1007b0003600f800809fbe00829fbe00849fbe006e
:1007c000869fbe0070458000000001004f03be0000
:1007d0004f02be004f01be004f00be003600f900c0
:1007e000004006003600f800809fbe00829fbe00d9
:1007f000849fbe00869fbe008045800000000100ef
:100800004f03be004f02be004f01be004f00be00ae
:100810003600f900004006003600f800809fbe0058
:10082000829fbe00849fbe00869fbe008a60ab0090
:100830001600320070e6ab00050032000043800075
:100840000000e000010032000000010070e6a90095
:100850007146ab0005003200104380000000e0004c
:1008600001003200000001007146a9007186ab0052
:1008700005003200204380000000e000010032004b
:10088000000001007186a9008a60a9004f03be0024
:100890004f02be004f01be004f00be003600f900ff
:1008a000004006003600f800809fbe00829fbe0018
:1008b000849fbe00869fbe00604780000000e0006d
:1008c0000100320000000100303923001048e80028
:1008d00011c0b3000000e900014878008860a90059
:1008e0004f03be004f02be004f01be004f00be00ce
:1008f0003600f900004006003600f8008020a9000c
:100900000000eb008c500200010000003600f800ef
:100910004c4e0200010000008040a90010002000a1
:100920008c500200010000003600f8008060a90031
:10093000200020008c500200010000003600f8006a
:100940008080a900300020008c50020001000000cf
:100950003600f8008600a900700020008c500200cc
:10096000010000003600f800809fbe00829fbe009c
:10097000849fbe00869fbe0070438000000001007f
:100980004f03be004f02be004f01be004f00be002d
:100990003600f900004006003600f800809fbe00d7
:1009a000829fbe00849fbe00869fbe008043800061
:1009b000000001004f03be004f02be004f01be0009
:1009c0004f00be003600f900004006009a23ab003d
:1009d000010032009a23a9009020a90000400600df
:1009e0000040da000000fe0000017800a001e200f3
:1009f00002003500a061a800a1e1a800b00c8000b1
:100a0000c10c80000200e000010032000089be003d
:100a1000000006000003b1000b0035009000b1009b
:100a2000080034008000b100070035009001b100db
:100a3000040034007000b100030035009001b100e3
:100a400001003c0010000500000005000003b1009b
:100a50000b0035009000b100080034008000b100a8
:100a6000070035005000b10004003400b001b100af
:100a7000030035005000b10001003c0010000500eb
:100a800000000500889fbe008a1f780002057800dc
:100a90000a00e0000c003200810478000004eb0042
:100aa000b6460200010000000004e000fcff320036
:100ab0003940780056420200010000000804e800b6
:100ac000880f5500f6ff3e000a0078004f057800b9
:100ad0004f04be000000060000000500839f680070
:100ae0000100e00002003d0060001000e0801800fe
:100af0000300e00002003d0060011100e0811900e8
:100b0000750007004f00e00002003b00600010008d
:100b1000e08018000000060014002000df0037000d
:100b2000f4ff2f00dd0037000001be0021000700a8
:100b30000470a70003f0a1006509b100160032009f
:100b40000d0035006828e10006003500f0ff2f0099
:100b5000f1ff27000300e00013003b000100280024
:100b60000000050000004000818048008502e90087
:100b7000fcff3a0008003700f88f420002003c00fa
:100b80008000eb00000005008100d1000080d30050
:100b90008502e800fcff3a000300e00002003b0091
:100ba00060001000e0801800000006006011b8002e
:100bb000d5003700c70ade00f107b200f50fb2001a
:100bc00008003200e1cf4200020032000170a000b4
:100bd00024000500810f70000100320004080500a8
:100be00044000500810f700002003a001400050067
:100bf0008502e9000000400081c04800fcff3b0086
:100c00000170a00024000500889fbe008a9fbe00de
:100c10008c1f7800110107001801330003866c0057
:100c20006450e100240032006420e100270032001b
:100c30006150e100220032006120e1002100320019
:100c40008b854200eb07b1000134b800003ab800d0
:100c50000804420089844a00013ab8000030b80014
:100c60008880400009014a00040033000000400071
:100c700081804800020149008b05e900c909dd00b7
:100c8000830170000100320013002000c814de0050
:100c90004814dd004709de001200b200c808de007b
:100ca00008847000c700070001f0a1000cf0a70045
:100cb00001f0a000fa0037006120e100fc003200e2
:100cc0000801be000200be00f7ff37006150e100de
:100cd000fcff3a00f60037006022b8000602200050
:100ce0000000d0008180d2000482d2008582d20030
:100cf0000000a0000202520083825a00030031006b
:100d00000202420083824a000000a1000603e900bb
:100d1000f3ff3a0000000600efff07000400be00ea
:100d20000000060003f0a200889fbe008a9fbe005c
:100d30008c1f7800c9000700d00033006450e10028
:100d40004f0032006420e1005200320003826c0048
:100d500007003b000905d0000306d000820f5400b5
:100d60000c065d00020039000200320089017800a3
:100d7000030678008582550004003d000003fd0055
:100d80008103fd008502ea008b854200840f72001a
:100d900002003b0060001000e08018006011b80005
:100da0000005eb007a28e1000a003900060078000f
:100db000c75ddd00f707b200878075002d003700a2
:100dc000828171000a017800610560008180d10094
:100dd0000080d3008502e900f9ff3b0006044000d3
:100de0008784480002003b0060041400e0841c007b
:100df0000988a300070032008a8171008281710096
:100e0000610164008904d1000884d3008b05e800e7
:100e1000170037000978a30013003a000b00e00028
:100e2000130034008b05e9000804440089844c0059
:100e30000a4474000978a3000d003a000b00e0009a
:100e4000070034008b05e9000804440089844c0045
:100e500001003a000b0020000978a300f7ff3200e0
:100e60000001eb0002003700828171000a01780066
:100e7000540007000cf0a70001f0a0008800370024
:100e80006420e10002003a00838f6c008800330088
:100e90000801be000200be0081003700889fbe002e
:100ea0008a9fbe00841f78006c0007004f00780006
:100eb00011003300f0ff2f00838f6c0006003b0011
:100ec000040565000a00a7000800370009f0a60025
:100ed0001000200008003700820f5400838f5c0050
:100ee000030039001000200001003e000000200037
:100ef00009f0a7000000ea004f05be004f04be0045
:100f00000000e00000000600889fbe008a9fbe002f
:100f10000082700004027100048271002600320019
:100f20000004be000200be006011b8006b09200082
:100f3000950220000182cf000a0039000541b1006e
:100f40000082cf00070039000541b1000982cf00bf
:100f5000040039000541b1000882cf0001003900ca
:100f60000541b10005425200120032000a003b0068
:100f700082817100610164008100d1000080d30092
:100f80008984d3000884d3008b05e8000442e8007c
:100f9000f7ff3a00070037000804440089844c003a
:100fa00000004800818048008b05e9000442e90008
:100fb000f9ff3a00030007004f05be004f04be00d2
:100fc0000000060081002000618055000b003d00fc
:100fd0000b00200061fe2f000100e1001d00340025
:100fe00082817100610164008904d1000884d3000a
:100ff0000000e800faff3a00710020006100640080
:101000000300700002006000090032006104440027
:10101000e0844c000988a500050032008b05e8003b
:101020006808e10002003a008904d1000884d30076
:10103000f20f20000258e10005003d00c75ddd0011
:10104000f907b200898075000800780000000600ea
:101050000bf827008b007800000005000004be009c
:10106000d4fe07000003be000405be000200be005f
:10107000d0fe0700844f7500000006000200be008d
:101080006450e100050036006420e10002003600f3
:101090000968a30001003a000800be000160a0003a
:1010a0004f0678004f05be004f04be00000006004a
:1010b000f0ff2f00f1ff2700f9ff37000c00fa00c6
:1010c000889fbe0000047800f0ff2700d0bf9f007b
:1010d0008004eb0099bf9f0088bf9f00a8bf9f00be
:1010e000200c2000b0bf9f0078815700cfb0970040
:1010f00070805700100007000fb89700094878006b
:101100008fb89700088050004f04be000080fa009e
:1011100000000600d0019000028151004240a90069
:101120000300340010017800014978000208e8004b
:101130000100780000000600f6874700889fbe0087
:101140008a9fbe008c9fbe008e1f7800000578002d
:10115000a1b79f00020778008004eb008e023700e1
:10116000afb097008100e800a1b79f0051c2b30063
:10117000814f500003003a00afb097000004eb002d
:1011800011003700ba0090000000fb000168a300c6
:101190000700320009017800800078000a0078001a
:1011a000dcff07000000e00005003a007a0237008b
:1011b0008a00780065030700e10f400076023200e4
:1011c0008904e8007402370001007800314178009a
:1011d000d3c2b300834f51000c00320007003c0023
:1011e000edc15100834f51000a003200ebc14100b4
:1011f000834f51000d003a000800370003c3b300cd
:10120000834f510009003a00060037000830a00063
:10121000edff37000800a000ebff37000810a0002a
:10122000e9ff37000820a000e7ff37000810a700fb
:101230000800a1000830a7000820a1008200fb00e0
:101240000103b100e98f50000c003e00000178005e
:101250008000eb006a08b900b201fb000303b10093
:1012600080804100020078009201fb000303b1007e
:10127000e98f5100f7ff3600060037008000eb00d1
:10128000a3c2b300834f510002003a00ce007800a1
:101290000000e8008005eb00e2c2b300904f1100af
:1012a00009003a0008e0a00064415100d04f11004d
:1012b00003003200000178000102780006003700c8
:1012c000ce0578000000e800000178000900370032
:1012d0006a58b9008085410002007800b201fb0025
:1012e0000303b100e98f5100f9ff36008400780054
:1012f000f5ff370032407800a2b79f00c3c6b300a5
:10130000834f5000250032000f003c0032c6b3006e
:10131000824f50008800320004003c000004e000ce
:10132000220232006b4151000f00370042c6b30069
:10133000824f50001700320065414100824f50003b
:1013400094003a001300370032c7b300824f5000b8
:101350001b00320007003c0064415100824f5000e6
:10136000100032000241e800824f500089003a002c
:101370000f00370052c7b300824f50008a0032007e
:1013800063414100824f500082003a00e0df9f003d
:1013900009003700e0df9f00850037000840a0000b
:1013a000d4ff3700e0df9f000860a0008000370016
:1013b000e0df9f000850a0000870a0007c0037000c
:1013c000e0df9f004e007800000678000000e0009b
:1013d00001003a004cf922000c0178000000eb00fb
:1013e000010037000000e800e24178000304e0005b
:1013f000fcff3a00800678000b00e000030032009a
:101400008d8f5500010031008b0678008005eb00c0
:101410008d8f5000010036008d85500068046400f7
:101420002a003a00110037003a0090000068a3003b
:101430000700320009017800010220000a0078004c
:1014400034ff07000000e00006003a000600370005
:101450008a00780000022000bc020700e10f400073
:10146000010032008904e8008b05e9000b00e00070
:10147000edff3a008085eb00140037003a00900041
:101480000068a300090032000c007800b000fb00e7
:1014900000067800090178000a0078001dff0700a7
:1014a0000000e00008003a00080037008c007800d7
:1014b0003100fb00010678008a007800a3020700d3
:1014c000e10f4000010032008904e8000d007800bf
:1014d0008006e9000000e000e8ff3a000800e000b4
:1014e000ad013200110037003a0090000068a300ff
:1014f0000700320009017800010220000a0078008c
:1015000004ff07000000e00006003a000600370074
:101510008a007800000220008c020700e10f4000e2
:10152000010032008904e8008b05e9000b00e000af
:10153000edff3a00980137004e017800cf91de00b0
:10154000c81ade004818dd004812de0004027000f0
:10155000e4df9f000848a300080032000404e00014
:1015600006003200e14f420004003200f4df9f0029
:1015700082e79f002d00200002003700f2df9f006d
:101580001d002000e2fd2f000f0141000206e800cf
:1015900099ff3700e0df9f00ecfd2f000f064600ab
:1015a0001d00200094ff3700e0df9f00080cb3000f
:1015b00008017800020cb200700064000200e00034
:1015c0000d003a000000e000020032004e06be00ae
:1015d000020037004e067800cfe6de00e00f56002e
:1015e000e08f5e000a003d003800b3006006160080
:1015f000e0861e00060037000000e0000200320016
:101600004e06be00020037004e0678008006eb0052
:101610000b00e00005003a008c8576000bf0a70077
:101620008b05ea008b05e900cf5dde0088017800bc
:10163000030cb200e3b79f0000042000808f51002c
:101640002300320003003c000300e00008003200e9
:101650002d003700000820006fb29700800f520065
:101660000d003200000c2000800f520026003a00ce
:10167000c2f9220010c0b30064014100b20f56004d
:10168000a28f5e001f0039000040e800ea4f5000c2
:10169000f9ff3a001b00370010c0b3000201200020
:1016a00003002000820f5600838f5e001500390072
:1016b000441add00cc11de00830172004411dd000c
:1016c0000040e800e84f5000f6ff3a000d003700f8
:1016d00010c0b3008200200003002000820f5600db
:1016e000838f5e0007003900431add00cd11de0054
:1016f000830172004311dd000040e800eb4f500011
:10170000f6ff3a00e0df9f006fd997000200fb0070
:101710008b0f500002003d00ebdf9f0003003700fd
:10172000808f550001003d00800578000100e00039
:101730000300320063006400010032008100e90010
:1017400008e8a300050032008b8f5000020034002f
:101750008b805000010037008000eb00efd997002c
:101760000300fb000002eb00d4b79f00808f500005
:101770000200340000805000d0b79f000828a3006a
:1017800040003200610164000818a3000f0032001d
:101790003a0090000068a30006003200b102200069
:1017a0000200e000010032008180e80009017800b9
:1017b0000d003700b00220000200e00001003200fe
:1017c0000080e8008a0078000e0037000200e00088
:1017d000100032003a0090000068a30007003200b9
:1017e00009017800010220000a00780049fe070084
:1017f0000000e00006003a00060037008a0078008a
:1018000000022000d1010700e10f4000010032007a
:101810008904e8005fb097000000e0005a00320041
:10182000bcb79f00cdb79f00800678003a009000bb
:101830000068a300070032000901780001032000be
:101840000a00780033fe07000000e00006003a00be
:10185000060037008a00780000032000bb01070063
:10186000e10f4000010032008904e8008d06e90024
:10187000eeff3a00ddb79f003fb69700cfb6970066
:1018800041003700dfb197000300e0001a0032008a
:101890000838a30018003a00bcb79f00cdb79f00de
:1018a000830678003a0090000068a3000700320029
:1018b00009017800010220000a00780015fe0700e7
:1018c0000000e00006003a00060037008a007800b9
:1018d000000220009d010700e10f400001003200de
:1018e0008904e8008d06e900eeff3a00ddb79f00ad
:1018f0003fb69700cfb69700610164000818a300b7
:101900000f0032003a0090000068a3000600320089
:10191000b10220000200e000010032008180e800f6
:10192000090178000d003700b00220000200e0003d
:10193000010032000080e8008a0078000e003700c5
:101940000200e000100032003a0090000068a3009e
:101950000700320009017800010220000a00780027
:10196000ecfd07000000e00006003a00060037002a
:101970008a0078000002200074010700e10f400097
:10198000010032008904e8000b03e9006330b9006c
:1019900000017800b2b79f004233dd00c0f9220099
:1019a000000343008e01780093b79f00080778007a
:1019b000060478005c0037008b05e9000004200075
:1019c0006fb29700800f52003800320003003c00d5
:1019d0000400e000080032003e003700000820004c
:1019e000efb09700808f500020003200000c2000e4
:1019f000808f500037003a000e48a30010003200dc
:101a00001802be000401be000c00be00f4b79f0027
:101a100085bf9f00b0fc0700e0df9f000000fb00d7
:101a2000cf80de007fb297008fba97000401be001e
:101a3000650e07000006560081865e00070037002d
:101a400018017800110009000286d800a2002000c9
:101a5000110009000280d800e1df9f006fd99700d4
:101a60000243b000e2df9f001a00370030f8220086
:101a70000e58a3000100320020f72200c1f9220015
:101a8000810054000c01be008100e9000300330016
:101a90008301d1000281d300fbff3700ef0061001a
:101aa000e0c07800e1df9f000a0037000c00be00b4
:101ab000bfb197008301e900030033008100d1002a
:101ac0000080d300fbff3700674060000043b00098
:101ad000e0df9f00ba0090006fda97000400fb007f
:101ae0000168a30007003200090178008000780037
:101af0000a00780087fd07000000e00005003a00ba
:101b0000050037008a00780010010700e10f40004f
:101b1000010032008904e8003fb0970063005000e4
:101b2000b0b79f00640454000b00e000a2ff3a002d
:101b30000e0478001fb797000838a3001600320083
:101b4000dfb097000100e0001300340001047800ca
:101b50003a0090000068a3000700320009017800f5
:101b6000010220000a0078006afd07000000e00082
:101b700006003a00060037008a00780000022000c4
:101b8000f2000700e10f4000010032008904e80084
:101b90000804e900eeff3a002fb1970012407800e8
:101ba000e0df9f000004e0006dfd3a0009007800ce
:101bb0004f0778004f06be004f05be004f04be0021
:101bc0006f01b100000006000000fa0068815700b4
:101bd000cfb89700201c230057fd07000080fa00b3
:101be0000000060080007800010078003041780095
:101bf00003c2b300834f5100faff3200e94f510096
:101c0000f8ff3200edc14100834f510003003a005c
:101c10008000780013c0b300050037008041eb005e
:101c2000b4c2b300844f510001003a008000780034
:101c30000000eb00020037006a02b9000400410016
:101c40003101fb000203b100e90f5100faff360039
:101c50000304e000010032000000ea00000006007a
:101c600003487800000278008100fb00a3002000f8
:101c7000110009008300d8008000fd008001780079
:101c800000c3b30000e241000104e00003003200a1
:101c900080c0400071fa9f000000060072fa9f00a9
:101ca000000006008001780063816100d0162000ea
:101cb00010003a0042062000110009008281d8007d
:101cc00001017800e01620000200e00009003a005f
:101cd000c112200083804000021920001100090079
:101ce0008280d800d01620000100e00001003a00f8
:101cf0000000e80000000600889fbe001004be003f
:101d0000c2032000030020000800be0002fc070000
:101d1000a0998900c2032000030020000800be0033
:101d2000edfb07000004be00c203200003002000fa
:101d3000f9fb0700b0998900c203200003002000ce
:101d40000800be00e4fb07000004be008201200082
:101d500003002000f0fb0700c099890082012000e9
:101d6000030020000800be00dbfb07000004be00eb
:101d7000e401400072002000110009008201d80037
:101d800001017800029a89006904200002003700ee
:101d9000000454008904e80009007800c1ff07002e
:101da000800f5400faff3d00f999890062406000fd
:101db000189a89008000eb000400370002045400e8
:101dc0008100e8000080fb000000d1001205230024
:101dd00062c17800024170000281fb00820f540052
:101de000f6ff3d00e1998900a03323000808e800d0
:101df000660050004f04be00000006000400fa0018
:101e000041fc2f00929981000191b90030024100fc
:101e1000a0824900e4bf9f00f5bf9f006480570087
:101e2000b5ff07000080fa0000000600889fbe0092
:101e30008a9fbe0000047800680090006300b9002b
:101e4000610123004b292300e14d78000080400010
:101e50008b00e800d04878008b80e80010409000ac
:101e60008048780009c2b3000100e8000948780002
:101e7000480090006300b900c1022300648145005e
:101e80006149780000804000e5804500d048780036
:101e9000e680450010409000804878000100e8008e
:101ea00009487800b800900089417800094178001d
:101eb000630040006aff0700a8009000a3c3b300be
:101ec00002c3b3006d80450065ff070098009000d5
:101ed000a3c3b30002c3b3007080450060ff0700d6
:101ee000980078008941780002c3b30073804500f0
:101ef0005bff0700d80090004a062000110009008f
:101f00008a00d800f34040008041eb00094178008e
:101f10007680450052ff0700d800900011000900ac
:101f20008a00d800a3c0b30002c3b3007880450084
:101f30004bff07000b0078004f05be004f04be00aa
:101f400000000600adff0700b8ff3700889fbe0005
:101f500001047800b80090008084eb000118a30011
:101f60003a003200180190000198a30002003a00e4
:101f70000200e00035003a000190a0003104980012
:101f800080047800f90fb2000200e00002003a007d
:101f900028009000000c7800ea8f540005003a00f9
:101fa0000178a30003003a0088007800d0002000e8
:101fb000e6ff070018009000d8009000810f500045
:101fc0000b0032000000e8001004980018007800b0
:101fd00009487800000ce80011c0b300c0382300a5
:101fe00001487800ea8f540018003a0005003700d5
:101ff0008800780009407800010c07008004780010
:1020000012003700380090000088a3000f00320053
:1020100018019000a80090004800900099fa07006d
:1020200098009000810f50000400320038009000aa
:102030000003b300300498008084eb000000eb0044
:102040001004980028009000000c78000900780027
:102050004f04be0000000600e68747008e1f780090
:10206000d0bf9f00e1bf9f000e0037005fba97000e
:1020700014407800efb99700934078000201e9001e
:10208000814f5000040032000080fb008180fb0083
:10209000010050000600370066875700041fe80063
:1020a000030fe8000200e000f0ff3a000000eb0040
:1020b0004f0778006f00b100000006008001780033
:1020c00002003700b15978000201e9000200e00087
:1020d000fcff3a000000060080017800808f50006d
:1020e0000900310002824000800f520006003600d5
:1020f0008401780082004000c36078000201e9009a
:10210000fdff3a00000006000200e000030032007c
:10211000b15978000201e900fbff3700000006001a
:102120008001780002192000110009008281d80086
:102130008000fd0000017800110020000200e00096
:102140000a003200638161008000eb0007003a0062
:1021500042062000110009008281d80001f0a7008a
:102160008100ea008100ea00cf08de00010078006b
:102170000000060011bf20000180b90012442f00aa
:102180000000410042062000110009000280d80032
:1021900000000600881f7800000478004242de003c
:1021a00003192000110009000384d8000001780001
:1021b0008001eb0002014200e0814900d6162000b8
:1021c0000643b8000202430083824b00420620000f
:1021d000110009000284d8008000fd0001005200b7
:1021e000e0805a004f04780000000600889fbe007f
:1021f0008a9fbe000004be00020578000900e800c6
:10220000dcff07000a0540008005eb00e18f540069
:102210000a00360008007800c1ff070022002000f5
:10222000030020000000e000020032001200200045
:10223000030020000205550083855d000800e900c9
:10224000d4ff07000000450081804d004f05be000f
:102250004f04be0000000600889fbe008a9fbe009b
:102260008c9fbe0000047800d8049000a3fb2f00d0
:10227000898141000080eb008080eb00e2102000ab
:10228000828f510032003e00c07620000080440062
:1022900038019000c8009000d4ff07000006be007f
:1022a000120020008000eb00207b2000cfff070001
:1022b0000005560081855e007200200003002000aa
:1022c0000a00be0094fa070064004000e080480065
:1022d00072002000030020008ffa070060049800bd
:1022e000b076200000804400aaff07000c06e90039
:1022f000000656007c0498008201200003002000a4
:102300000a00be00300c070028019000cf91de00cb
:102310000000410081804900c2032000030020002a
:10232000290c070018019000cf91de000000410049
:1023300081804900c203200003002000220c070016
:1023400018017800cf91de00000041008180490033
:102350004f06be004f05be004f04be000000060041
:102360000000fa0068815700cfb89700201c2300b6
:10237000690207000080fa0000000600889fbe0086
:102380000004be00050037000000fb008900780053
:10239000eefe0700e10f40000400320038407800f4
:1023a0000004e000f8ff3a000000eb004f04be001c
:1023b00000000600881f7800211c2300efff0700a3
:1023c00000047800211c2300a0002000dffe07008d
:1023d000080078004f047800000006000001780033
:1023e00082017800030178003204e000fcff3a002b
:1023f00031417800825978000204e000fcff3a0085
:10240000000006000001780002007800b04178006a
:1024100081cf5100030032000304e000f9ff3a00cd
:102420000001eb000200780000000600b0417800d7
:1024300031c1510002003a000304e000fbff3a0002
:102440000200fb000000060000017800b1417800a6
:10245000035978000304e000fcff3a000000060086
:102460000000fa00889fbe008a9fbe000005780029
:102470000fb99700f08557002a0037000201e800e5
:1024800054c2b30084cf510025003a00b242780014
:102490000502fb000403b1008b80e9000400e000aa
:1024a00008003a00810578009b01780001003700a0
:1024b000045d7800334278000404e000fcff3a0039
:1024c00018003700810578009b0178000402420063
:1024d000a6b8220006024200060478000a0378002b
:1024e00094037800110009008701d8008101780069
:1024f000c4037800110009008701d8008003780028
:1025000000c3b30000db4300880f5200f4ff3a0021
:102510008502fb000503b1000505450001003700f9
:10252000035d7800924178000304e000d3ff3a0095
:10253000034d78004f05be004f04be000080fa0036
:1025400000000600889fbe008a9fbe008c1f780096
:102550000004780082047800030578008100e90017
:1025600001064400880578000a0137008904e80064
:1025700050c2b300804f510000013a00394078004a
:10258000a1c5b300814f5000e300320028003c0099
:10259000edc05000814f50008f00320012003c000f
:1025a000ebc05000814f50005500320007003c0046
:1025b00001a22200824f5000ec00320011c4b3008f
:1025c000814f5000da003a004200370081c4b30066
:1025d000814f50006f0032008140e800814f500071
:1025e000d3003a006d00370071c5b300814f500031
:1025f0008e00320007003c00e4c05000814f5000c4
:102600007d00320081c0e800814f5000c8003a00d0
:102610007b00370081c5b300814f5000a900320014
:102620008140e800814f5000c1003a00b5003700fa
:10263000a1c6b300814f5000600032000f003c0083
:10264000e8c05000814f50002900320004003c00d7
:102650008140e900814f5000b5003a001900370071
:1026600031c6b300814f5000290032008140e8009c
:10267000814f5000ae003a003d00370071c7b300f3
:10268000814f50007800320007003c00eac0500043
:10269000814f50004d003200e3c04000814f500098
:1026a000a3003a004e00370081c7b300814f5000ad
:1026b000710032008140e800814f50009c003a00d8
:1026c0008b0037006a00900000004000e1a7220064
:1026d000030037006a0090000000400061ac220057
:1026e000e1007800a1003700800478009f003700e7
:1026f0004a0090000000400041b02200f8ff37007f
:102700004a00900000004000e1b62200f4ff3700cc
:10271000da009000c0762000809f40009a1f780069
:102720001a009000801f7800aa009000811f780096
:102730003a009000801f78004a009000000040009e
:1027400041b02200e11f78006a00900000004000c4
:10275000e1a72200e11f780090a22200801f7800ec
:10276000803123003eff0700f08757000700370045
:10277000ba009000811f7800e0a32200801f78003b
:102780008031230036ff0700e487570081312300a2
:10279000760037002a00900022003700aa0090003f
:1027a000c2002000110009008200d8000100e000f2
:1027b000f0ff3a0082007800eeff37007a009000c8
:1027c000801fe80010a42200ecff37004a009000b0
:1027d000801fe800e8ff37009a009000e5ff37000f
:1027e0002a00900031a22200eb0f50005f0034005d
:1027f00061a222005d0037009a1f7800deff3700db
:102800007a00900072002000110009000200d80038
:1028100001017800ea009000810f510001003400ae
:102820000000e800801f7800d3ff3700fa01900015
:1028300072002000110009008201d8008101780097
:1028400000027800ea009000e680400011000900d4
:102850008200d800818f5100010034000402e8009a
:10286000841f7800c4ff3700ea009000811f7800c1
:1028700040a42200c1ff3700da009000c07620009b
:10288000809f40003a009000801f78004a0090002e
:102890000000400041b02200e11f78006a00900073
:1028a00000004000e1a72200e11f780070a4220090
:1028b000801f780080312300e9fe0700ea87570077
:1028c000b2ff37009a1f78009a009000811f7800ad
:1028d0002a009000801f780050a52200801f7800f9
:1028e00080312300defe0700e8875700a7ff37008e
:1028f0005a00900042062000110009000200d80092
:102900009cff3700da009000c0762000809f4000d6
:10291000e0a5220099ff37000a08900021a22200ba
:102920000000e00011003200415c81000f00370020
:102930008131230050c2b30080487800090078003c
:10294000404178008101e800824978008181e800f7
:102950008049eb000204e00063ff3200030037000f
:102960008c8f550007003200805d78003140780080
:102970000004e000faff3a00060037008c8f550093
:1029800003003a00804deb000000eb00060037002a
:10299000825d7800194178000204e000f3fe3a00fd
:1029a000824d7800088055004f0678004f05be0024
:1029b0004f04be0000000600800078003104e000f3
:1029c000feff3a000080ea000080400000000600a0
:1029d00080017800060037000201e900b14278006a
:1029e00085597800030278000504e00006003200f3
:1029f000030278000200e000f7ff3a00020037000f
:102a0000005aeb000201e9000200e000fcff3a007e
:102a100000000600889fbe000004be000800e00021
:102a200003003a00b89c81000800e0001300320067
:102a30000800be00c4090700000444001804e000b8
:102a400004003a000000eb00b09c8900000478000c
:102a50000a0037000800be00a80907000000440073
:102a6000b09c89001004e000020032000058eb0026
:102a7000010037000000eb00b09c890008007800de
:102a80004f04be00000006000101780080007800bd
:102a9000201c2300a0003700889fbe008a9fbe0034
:102aa0000084fb00d1c6b300814f500020003600e7
:102ab0004b062000110009000b84d8008105780026
:102ac000720040004200dd00cae72200000045001d
:102ad0000200200003f023001000be004af80700a7
:102ae0000002be00a9002000110009008985d8005d
:102af00080057800e9854500c25ddd008b05450055
:102b00001b01be000400be003ff807000002be002b
:102b1000110009000984d800010478004244dd0056
:102b2000080545001a01be000400be001800370069
:102b3000ea4f500010003600aa00200011000900e2
:102b40000a84d80001057800690440004244dd0091
:102b5000c9e72200088444000200200003f023009b
:102b60001800be0028f807004255dd008a844400a2
:102b70001901be00060037004244dd00c0e7220014
:102b8000080440000200200003f023001800be00eb
:102b90001df807004f05be004f04be0000000600f0
:102ba000889fbe008a1f7800d1c6b3000004e000f1
:102bb00025003d000040ea000004fb00814f50006a
:102bc0000e00340042062000110009000204d80063
:102bd000a9002000110009008900d800e900400088
:102be000c208dd00cae72200810045001101be00d5
:102bf000407681005176810023003700ea4f500073
:102c00000e003400a2002000110009000204d800c8
:102c100001017800690040004200dd00c1e72200a8
:102c2000008040004211dd00828040001101be00a2
:102c30001000be00f4f707002b0037004244dd000f
:102c4000c0e72200260037000004fb00814f50003f
:102c50001700340042062000110009000204d800c9
:102c6000a9002000110009008900d800e9004000f7
:102c7000c208dd008ae42200810045001101be0087
:102c8000a0748100b1748100dff707000002be006c
:102c9000110009000904d800010478004244dd0055
:102ca000080545001a01be000400be00e1ff370020
:102cb000ea4f500008003400a20020001100090073
:102cc0000204d80001017800690040004200dd00e4
:102cd00081e42200d2ff37004244dd0080e422007c
:102ce000080440001800be004f0578004f04be00e5
:102cf00000000600d0019000028151004240a9006e
:102d00000300340010017800014978000208e8004f
:102d10000100780000000600af02b000889fbe00ee
:102d20008a9fbe008c9fbe008e1f7800000778002f
:102d3000a1af9f00f2af9f006055b8000000eb000c
:102d4000c0b79f00a2083700afa897008100e80035
:102d5000a1af9f0051c2b300814f500003003a0061
:102d6000afa997000000eb0013003700be009000f1
:102d70000000fb000168a300070032004fb197007c
:102d8000800078000e007800daff07000000e00005
:102d900005003a008e0837008e0078006bfc0700b3
:102da000e10f40008a0832004fb197000201e800ad
:102db000c2b79f008608370083007800334178004f
:102dc000b4c2b300844f51001300320007003c002e
:102dd0006b425200844f51000d00320063424200aa
:102de000844f510012003a000d003700d4c2b300e6
:102df000844f51000400320063424200844f51006e
:102e00000b003a00080037000030a000eaff37004e
:102e10000000a000e8ff37000010a000e6ff370028
:102e200000b0a000e4ff37000020a000e2ff370060
:102e30000010a7000000a1000030a7000020a100a2
:102e40008201fb000303b100e98f51000e003e0038
:102e5000010178008001eb0093b79f006a1ab90066
:102e6000b201fb000303b1008481410082007800bd
:102e70001202fb000403b100e90f5200f7ff360015
:102e800093b79f000a0037000002eb0094b79f0041
:102e9000a3c2b300834f510005003a00ffaa970078
:102ea00045017800f5af9f0092b79f008100e800d0
:102eb000e2c2b300914f110019003a0000e0a000f7
:102ec000a0b79f00a0c2b300d14f10000400320091
:102ed000010078008001eb0083b79f0009003700f4
:102ee0007faa9700c4027800f4af9f0085b79f00c7
:102ef0008100e800afb197000e0037006a1ab900f0
:102f000084014100800078003001fb000203b10021
:102f1000e90f5100f9ff360083b79f00f5ff370036
:102f200000c0a000a0b79f000000eb0080b79f008a
:102f3000f0ff370031407800a1af9f0072c6b300a8
:102f4000824f50003500320018003c00a3b79f00ac
:102f500031c6b300814f5000d00032000e003c005b
:102f6000fcc05000814f50004200320006003c007f
:102f70000004e0001b08320081c0e900814f5000ce
:102f8000e0003a003300370081c5b300814f5000a4
:102f9000dc003a004400370051c6b300814f5000b6
:102fa0002100320026003c002100370002c7b30098
:102fb000824f50003b0032000b003c006441510046
:102fc000824f50001c003200a3b79f00f1c6b3002f
:102fd000814f50002e003200e6c05000814f50005b
:102fe000c8003a0012003700a3b79f0051c7b300d2
:102ff000814f5000c8003200e3c04000814f5000b4
:1030000004003200e5c05000814f5000bd003a007e
:103010002d003700a0cf9f0027003700a3b79f00e7
:10302000a0cf9f0017003700a0cf9f000d003700f2
:10303000a0cf9f00bc0037000340a000bdff3700b9
:10304000a0cf9f00afb1970003a0a000a3b79f003f
:10305000b5003700a0cf9f002fb297000450a0000a
:10306000a4b79f00afb297000580a000a5b79f004e
:10307000ad003700a0cf9f002fb097000050a000f8
:10308000a0b79f00afb097000190a000a500370047
:10309000a0cf9f002fb197000260a000a2b79f00b1
:1030a000a1003700a3b79f00a0cf9f00afb197004a
:1030b0000350a000a3b79f002fb297000470a00098
:1030c000a4b79f0098003700a0cf9f00ffaa9700e9
:1030d00045007800f5af9f00000678000000e00092
:1030e00001003a006cfe22008c0078000000eb002a
:1030f000010037000000e800614178000204e000b0
:10310000fcff3a00800678000fb097000000e00056
:10311000030032008d0f500001003100800678005e
:103120000004eb009fb097008d8f50000100360027
:103130000d8450002fb19700e804610035003a007b
:10314000acb79f00bdb79f000a06be00cfb5970081
:10315000110037003e0090000068a3000700320015
:103160000b017800010220000e007800e1fe07004c
:103170000000e00006003a00060037008e007800ec
:103180000002200071fb0700e10f40000100320047
:103190008b05e8000804e9000800e000edff3a00b4
:1031a000cbb79f000c05be002fb69700bfb69700a7
:1031b0000084eb00aab79f00bbb79f001700370041
:1031c0003e0090000068a300090032000c00780067
:1031d000b000fb00000678000b0178000e007800bc
:1031e000c4fe07000000e00008003a000c003700b1
:1031f0008c0078003100fb00010678008e0078001a
:1032000052fb0700e10f4000050032008b05e8008b
:1032100003003700aab79f00bbb79f00cfb5970048
:103220000d0078008006e9000000e000e4ff3a00ad
:10323000cbb79f002fb59700bfb597000900e000fe
:1032400063073200cfb49700110037003e009000b2
:103250000068a30007003200090178000102200085
:103260000e007800a3fe07000000e00006003a0010
:10327000060037008e0078000002200033fb0700b4
:10328000e10f4000010032008904e8000804e90071
:103290000800e000edff3a004c073700ffa9970057
:1032a00043007800f3af9f00cf80de00c809de0046
:1032b000480add004801de0002017200a2cf9f0033
:1032c000afb297000548a300080032000204e000f6
:1032d00006003200e14f410004003200b2cf9f00ef
:1032e000c0cf9f002d00200002003700b0cf9f000c
:1032f0001d002000a0fc2f000f0040000006e80089
:1033000081ff3700a0cf9f00acfc2f000f064600c6
:103310001d0020007cff3700a0cf9f00afb09700ba
:10332000010cb300a1b79f00017020002fb19700de
:1033300081006100700061000100e000e1043200e2
:1033400002c8a300020032006300200083b79f0080
:103350000000e000080032007faa970068025200d7
:103360003400be002401be00f4af9f00eb0707004d
:103370000004be0003003700ffaa97004504be000a
:10338000f5af9f006011b8000800be00e2f507002d
:103390000000e00004003d0009f0a2002fb09700fb
:1033a0003000b300a0b79f000000eb00f0a79f0023
:1033b0006011b8000800be00d30707000000e0005d
:1033c00024003200e2fc2f000f0141000800be0083
:1033d000cf0707007fa097000000e9006302b90053
:1033e000a2002000110009000202d800f0a79f00ef
:1033f0000000e00002003d000000e900f0a79f008f
:103400007fa697000c40ea00e5fd07000801be001a
:10341000fdf507000005be000200200003f82300b0
:10342000bdf507000000e00002003d000c06e900c9
:103430000700370002002000031224000a00be002b
:10344000b7f507000000e000020035000c06e800b8
:10345000fca79f007fa697002fb197000288a300ca
:1034600007003a000298a300ae023200e40f4600c3
:10347000030035008fb19700830f560065023500b9
:103480000fb297000400e00005003200afb29700d1
:103490000598a300020032000402e90084b79f00ef
:1034a0000fb09700e80f50000300360080c0b30053
:1034b000a0cf9f00020037008fe09700a1cf9f00b0
:1034c0006011b8000800be008f0707000000e00090
:1034d00033003200afce97000d405600b0fd07001c
:1034e0000001be000800be002a0707000004be005d
:1034f0006a070700adf507000001be000800be0026
:1035000008f607000200200003f0230084f50700fe
:103510000000e000050035000200200003f0230059
:103520000800be0000f607000004be000800be0050
:103530005a0707000d01fb008201e800c219dd00f7
:10354000e4fe220083014200b30f5000a38f580015
:1035500007003900d2cc2c00c3dc23000800be00d9
:10356000a9f507000004be000c06e8000b003700b8
:103570004211dd0002014200b20f5000a28f58003c
:103580000700310002002000031224000800be00e2
:103590009df507000004be000c06e900fca79f0093
:1035a00001a020002fb197008100610000202000c1
:1035b000808f500026003a008fb19700ea8f5100ab
:1035c00002003400a400200084b79f000800be0061
:1035d00032070700070037008fb297008502e90025
:1035e00085b79f00a2002000030020000c00be0051
:1035f000b9f507000006be00e00f5000e08f58004c
:1036000006003200a200200003002000c2f50700df
:10361000e00f5000e08f5800efff32002fc89700f6
:103620008000fb000fb19700810f510008003d00a2
:10363000024050005afd07000001be000800be0015
:10364000d40607000004be008fe19700a3cf9f00bf
:103650001fb29700650052008fb29700050050001e
:1036600090b79f000500e00003003a002fb09700dc
:1036700000b8a300030032009fb097008100e9006a
:1036800091b79f002fb197006300610003003200e3
:103690009fb197008301e90093b79f002fb2970075
:1036a0000428a300530032003e0090006101620034
:1036b0000418a300180032000068a3000a003200ba
:1036c000b10220000200e000010032008180e80029
:1036d0004fb197000e00780086fd07000000e00063
:1036e00009003a003a003700b00220000200e00072
:1036f000010032000080e8008e00780013fa070015
:10370000e10f400032003200cfb297008502e8009e
:10371000050678002f0037000200e0002c00320080
:103720000068a300070032004fb19700010220009b
:103730000e0078006ffd07000000e00006003a0070
:10374000230037008e00780000022000fff90700f8
:10375000e10f40001e0032004fb097000000e8006b
:10376000000678001b0037003e0090000068a300b0
:103770000b0032000c017800010320000e007800dd
:10378000f4b79f0085bf9f005afd07007fb29700e6
:103790008fba97000000e0000a003a000a003700e4
:1037a0008e00780000032000f4b79f0085bf9f00c3
:1037b000e6f907007fb297008fba9700e10f40004b
:1037c000010032000c06e8008904e900030037001c
:1037d0004fb697000802be009fb497000900e000b2
:1037e000e1ff3c0099b79f00ccb79f000404be00e6
:1037f0004f003700afb097000138a3001c003a001b
:103800004fb69700d8af9f00e9af9f009fb49700d5
:10381000110037003e0090000068a300070032004e
:103820000c017800010220000e00780031fd070035
:103830000000e00006003a00060037008e00780025
:1038400000022000c1f90700e10f40000100320032
:103850000c06e8008904e9000900e000edff3c00e7
:1038600099b79f00ccb79f005fac9700efac970073
:103870003e009000afb19700618161000318a30082
:10388000180032000068a3000a003200b1022000d4
:103890000200e000010032008180e8004fb1970093
:1038a0000e00780013fd07000000e00009003a0058
:1038b0001f003700b00220000200e00001003200cb
:1038c0000080e8008e007800a0f90700e10f4000ba
:1038d000170032004fb297000402e800c4b79f00ff
:1038e000130037000200e000110032000068a3005e
:1038f000070032004fb19700010220000e0078004f
:10390000fcfc07000000e00006003a000800370059
:103910008e007800000220008cf90700e10f4000c3
:1039200003003200cfb297008502e800c5b79f00c0
:103930000800be00590607000006be003e019000c8
:10394000e0fe2200afc997008300fb000268a300dd
:103950000d003200c208dd00010040001001be0071
:103960000c00be00dcf40700010320008080400052
:103970004fb197000e007800defc07000000e00069
:103980000d003a000f003700c208dd0001004000c2
:103990001001be000c00be00cff40700020320009f
:1039a000000141008e0078000200780067f90700ee
:1039b000e10f4000030032004fb297000402e8001c
:1039c000c4b79f00afca97000500fb004200dd00ae
:1039d000e1fe2200008040001001be000c00be008d
:1039e000cdf407000006be000fb097000000e00015
:1039f00003003a00afb0970001b8a30066003200a0
:103a00003e0090000068a300070032004fb197000d
:103a1000e10220000e007800b6fc07000000e00084
:103a200006003a00080037008e007800e00220000f
:103a300046f90700e10f4000030032004fb1970044
:103a40000201e800c2b79f002fcc9700cfb49700c7
:103a500033003700afb197000398a300080032008d
:103a6000e00f5600e08f5e0005003a00c9b79f00e6
:103a70000042eb00a4cf9f000004eb00430037009e
:103a80003e019000e0fe22008100fb000268a300de
:103a90000d003200c208dd00010040001001be0030
:103aa0000c00be008cf40700010320008080400061
:103ab000090178000e0078008efc07000000e0008d
:103ac0000d003a000d003700c208dd000100400083
:103ad0001001be000c00be007ff4070002032000ae
:103ae000000141008e0078000200780017f90700fd
:103af000e10f4000010032008904e800afca9700de
:103b00000500fb004200dd00e1fe220000804000d5
:103b10001001be000c00be007ff407000006be00ce
:103b20002fc897008040e900a1cf9f000004e0006b
:103b3000c8ff3a00c9b79f000804fb000fb0970008
:103b400008045000110037003e0090000068a300f8
:103b50000700320009017800010320000e00780000
:103b600064fc07000000e00006003a000600370091
:103b70008e00780000032000f4f80700e10f4000f9
:103b8000010032008904e8000804e9000800e000b0
:103b9000edff3a00c9b79f003e009000afb097001c
:103ba0000158a300120032000068a3000700320091
:103bb0004fb19700510420000e0078004dfc070023
:103bc0000000e00006003a001a0037008e0078007e
:103bd00050042000ddf80700e10f4000150032001e
:103be0004fb197000201e800c2b79f0011003700f3
:103bf0000068a300070032004fb197005106200073
:103c00000e0078003bfc07000000e00006003a00d0
:103c1000080037008e00780050062000cbf807001f
:103c2000e10f400003003200cfb197008301e800ac
:103c3000c3b79f00ffa097003e0090000100e00086
:103c400014003d008100ea00f1a79f000068a30076
:103c5000070032004fb19700d10220000e0078001b
:103c600024fc07000000e00006003a001a003700bc
:103c70008e007800d0022000b4f80700e10f400069
:103c8000150032004fb297000402e800c4b79f004d
:103c9000110037000068a300070032004fb1970001
:103ca000b10220000e00780012fc07000000e000c6
:103cb00006003a00080037008e007800b0022000ad
:103cc000a2f80700e10f400003003200cfb29700d6
:103cd0008502e800c5b79f00be0090007fa0970056
:103ce0000168a3000b003200a200200011000900af
:103cf0000200d80001032000808040004fb19700ef
:103d00000e007800fbfb07000000e00009003a000d
:103d10000b003700a2002000110009000200d800ab
:103d20000003b0008e00780088f80700e10f400023
:103d3000030032004fb097000000e800c0b79f00ba
:103d4000be0090007fa097000168a3000a00320027
:103d5000a2002000110009000200d8000103b000f9
:103d60004fb197000e007800e2fb07000000e00072
:103d70000a003a000c003700a200200011000900e0
:103d80000200d80000032000010040008e007800ef
:103d90006ef80700e10f400003003200cfb097003b
:103da0008100e800c1b79f002fb197000238a3003f
:103db000870432009fb197000300e00084043400c0
:103dc00003047800cfb497003e0090000068a30081
:103dd0000700320009017800010220000e0078007f
:103de000c4fb07000000e00006003a0006003700b0
:103df0008e0078000002200054f80700e10f400018
:103e0000010032008904e8000804e900eeff3a00ee
:103e10006e0437000c00e00004003d000c86ea0050
:103e20000fb297000c02420084b79f000800be004a
:103e30001a050700d0af9f00e1af9f00a1fe22004e
:103e40000040eb0007003700e48040005faa9700c5
:103e5000efaa9700b10f5200a18f5a00030039005a
:103e60000040e800ea4f5000f7ff3a000000fb0076
:103e70008fb297008082520085b79f00ec8f52006e
:103e800006003c000540780003fb07000001be006f
:103e90000800be00a4f307000004be000fe0970076
:103ea0003ffb07000006be005fa89700efa8970041
:103eb0003ef307000001be000800be0099f30700b2
:103ec0000001be000c00be004ff30700f304070022
:103ed0000006be0008003700a200200003002000fa
:103ee0000c00be007cf307000006be000fb0970078
:103ef0000000e90080b79f008fb097000100e0004c
:103f000011003200a2002000030020000c00be00bf
:103f100081f30700e00f5000e08f5800eeff320001
:103f2000090037000fb19700ec0f510006003c006c
:103f300002407800d8fa07000001be000800be0069
:103f400079f307000004be007fa69700e90f560032
:103f50000c003c006011b8000800be00ea04070035
:103f60000000e0001b0032000800be00cb04070088
:103f7000e00f5000e08f580016003a00e10f5600a5
:103f800014003400f2052700930824000a00be0044
:103f9000e1f207000000e00002003d006906560063
:103fa0000100370068065600fca79f006fc8970005
:103fb000fbfa07000005be000001be000800be00bd
:103fc00074040700b50407000006be006044b80092
:103fd0000a0037000800be00b00407000006be005b
:103fe000f2f207000001be000800be004df307001a
:103ff0000004be000000eb00f0a79f00e1fe2200dd
:1040000010c0b30005003700e4804000b10f560037
:10401000a18f5e00030039000040e800ea4f500025
:10402000f9ff3a00a0cf9f00ffa097009fb1970033
:10403000818051000fb29700848050000000fb0087
:104040000080500090b79f0000802000afb2970022
:1040500000806200d0af9f0002003a000400e00040
:10406000030032001fb097000000e90090b79f00e6
:10407000afb0970063806000030032001fb197006b
:104080000201e90092b79f00afb197000328a30097
:104090005e003200618161000318a3001900320044
:1040a0003e0090000068a3000a003200b102200028
:1040b0000200e000010032008180e8004fb197006b
:1040c0000e0078000bfb07000000e00009003a003a
:1040d00043003700b00220000200e000010032007f
:1040e0000080e8008e00780098f70700e10f40009c
:1040f0003b0032004fb297000402e800c4b79f00b3
:10410000370037000200e000350032003e0090002a
:104110000068a300070032004fb1970001022000a1
:104120000e007800f3fa07000000e00006003a00f5
:104130002b0037008e0078000002200083f7070074
:10414000e10f400026003200cfb297008502e80060
:10415000c5b79f00220037003e0090000068a30012
:104160000f0032000d017800010320000e007800de
:10417000f4b79f0085bf9f00d6b79f00e7b79f00a9
:10418000dcfa07007fb297008fba97005fb3970001
:10419000efb397000000e0000e003a000e00370079
:1041a0008e00780000032000f4b79f0085bf9f00b9
:1041b000d6b79f00e7b79f0064f707007fb297006c
:1041c0008fba97005fb39700efb39700e10f4000fd
:1041d000010032008d06e8008904e9000400370080
:1041e0000802be009fb497000c03be00cfb6970034
:1041f0000900e000d8ff3c0099b79f00cdb79f00b1
:104200000404be000606be007c0037002fb09700f5
:104210000038a30020003a00b8af9f00c9af9f004c
:104220009fb497008caf9f009daf9f00cfb69700c3
:10423000110037003e0090000068a3000700320024
:104240000d017800010220000e007800a9fa070095
:104250000000e00006003a00060037008e007800fb
:104260000002200039f70700e10f40000100320092
:104270008d06e8008904e9000900e000edff3c003c
:1042800099b79f00cdb79f003fac9700cfac970088
:104290000fae97009fae9700afb2970061816200aa
:1042a0000518a300190032003e0090000068a3002a
:1042b0000a003200b10220000200e00001003200da
:1042c0008180e8004fb197000e00780089fa07005e
:1042d0000000e00009003a0048003700b00220006a
:1042e0000200e000010032000080e8008e0078004b
:1042f00016f70700e10f4000400032004fb0970072
:104300000000e800c0b79f003c0037000200e0005a
:104310003a0032003e0090000068a300070032001f
:104320004fb19700010220000e00780071fa0700db
:104330000000e00006003a00300037008e007800f0
:104340000002200001f70700e10f40002b003200bf
:10435000cfb097008100e800c1b79f002700370069
:104360003e019000e1fe22000000fb000268a30075
:10437000100032004200dd00008040001001be004d
:104380000c00be0054f20700a20020000300200031
:1043900061f2070001032000808040004fb19700c8
:1043a0000e00780053fa07000000e00010003a0009
:1043b000120037004200dd00008040001001be0006
:1043c0000c00be0044f20700a20020000300200001
:1043d00051f2070002032000000141008e00780026
:1043e00002007800d9f60700e10f40000300320018
:1043f0004fb197000201e800c2b79f00afc8970015
:104400000140e900a0cf9f000104e000d4ff3a0082
:104410000806be00cfb49700130037003e0090009e
:104420000068a300070032000901780001032000a2
:104430000e0078002ffa07000000e00006003a00a6
:10444000060037008e00780000032000bff607004a
:10445000e10f4000010032008904e8007fa09700ce
:104460000000e900f0a79f007fa097000000e00097
:10447000eaff3c00c9b79f000c04be008fb1970053
:10448000e88f51000300340080c0b300a0cf9f002c
:10449000020037000fe29700a4cf9f002fc89700bb
:1044a0008000fb008fb297008180520081b79f008f
:1044b0000004e00003003a005fa897000000e0005d
:1044c000120032003e0090000068a3000700320096
:1044d0004fb19700e10220000e00780005fa0700b6
:1044e0000000e00006003a00080037008e00780067
:1044f000e002200095f60700e10f400003003200c3
:10450000cfb097008100e800c1b79f002fc8970087
:10451000a3f907000001be000800be00baf10700c1
:104520005e0307000006be004fb497002e00370060
:104530003e019000e0fe22008100fb000268a30023
:1045400010003200c208dd00010040001001be0072
:104550000c00be00e0f10700a200200003002000d4
:10456000edf1070001032000808040000801780081
:104570000e007800dff907000000e00010003a00ac
:1045800010003700c208dd00010040001001be002d
:104590000c00be00d0f10700a200200003002000a4
:1045a000ddf1070002032000000141008e007800c9
:1045b0000200780065f60700e10f400001003200bc
:1045c0000804e8002fc997000200fb004200dd004c
:1045d000e1fe2200008040001001be000c00be0081
:1045e000cdf107000006be002fc897008040e9000b
:1045f000a1cf9f000004e000cdff3a00c8b79f00a4
:104600000fb49700cfb49700110037003e00900020
:104610000068a300070032000901780001032000b0
:104620000e007800b3f907000000e00006003a0031
:10463000060037008e0078000003200043f60700d4
:10464000e10f4000010032008904e8000804e9009d
:104650000800e000edff3a00c9b79f00afb1970036
:104660000338a3005a0232001fb297000400e00092
:1046700057023400040478003e0090000068a30054
:104680000700320009017800010220000e007800c6
:1046900098f907000000e00006003a000600370025
:1046a0008e0078000002200028f60700e10f40008d
:1046b000010032008904e8000804e900eeff3a0036
:1046c00042023700afb09700010cb20013003a006d
:1046d0000000e00004003200ffaa97004506be007b
:1046e000f5af9f00040037007fa8970040067800d0
:1046f000f0af9f00cfe6de00e00f5600e08f5e00d7
:1047000010003d00afb097003100b300a1b79f008b
:1047100060061600e0861e000a0037000000e00078
:10472000040032007fa997004206be00f2af9f004e
:1047300004003700ffa9970043067800f3af9f00fd
:104740008006eb000fb297000400e00006003a007c
:104750000c80760000f0a7000000ea000000e900ed
:104760004f00de0080b79f00afb29700050cb2008b
:10477000b5af9f0000042000808f5200230032005c
:1047800003003c000500e000080032002d00370067
:1047900000082000bfa89700808f50000d00320055
:1047a000000c2000808f500026003a00e1fe22001d
:1047b00010c0b300e4804000b10f5600a18f5e002e
:1047c0001f0039000040e800ea4f5000f9ff3a00ae
:1047d0001b00370010c0b3000201200003002000be
:1047e000820f5600838f5e0015003900441add00e9
:1047f000cc11de00830172004411dd000040e800ae
:10480000e84f5000f6ff3a000d00370010c0b3002b
:104810008200200003002000820f5600838f5e007c
:1048200007003900c31add00cd11de00838172005c
:104830004311dd000040e800eb4f5000f6ff3a0066
:10484000a0cf9f00afc897000100fb000fb19700f9
:10485000820f500002003d00a2cf9f0004003700ed
:104860008fb19700808f510001003d0080b79f00fd
:104870001fb297000400e00005003200afb29700bd
:1048800063806200020032000402e90094b79f00d6
:104890002fb0970000e8a300090032009fb09700f6
:1048a0000fb19700828f50000300340082805000c7
:1048b00091b79f00020037008001eb0093b79f0083
:1048c000418c20002fb297008100620000842000fc
:1048d000808f500006003a009fb297000500e0006c
:1048e000110032008502e90095b79f000e003700e5
:1048f000018c20002fb0970081006000008820000c
:10490000808f500008003a009fb09700e28f50005f
:10491000030034008180e90091b79f000200370056
:104920000001eb0092b79f00afc997000300fb00a6
:104930000002eb00d4af9f009fb29700808f52001f
:104940000200340000805200d0af9f002fb09700cb
:104950000028a3007d003200610160000018a30060
:10496000190032003e0090000068a3000a003200e7
:10497000b10220000200e000010032008180e80066
:104980004fb197000e007800daf807000000e00051
:1049900009003a0053003700b00220000200e00096
:1049a000010032000080e8008e00780067f5070003
:1049b000e10f40004b003200cfb097008100e800cb
:1049c000c1b79f00470037000200e000130032002b
:1049d0003e0090000068a300070032004fb197002e
:1049e000010220000e007800c2f807000000e0007d
:1049f00006003a003b0037008e00780000022000dd
:104a000052f50700e10f4000360032004fb1970029
:104a10000201e800c2b79f0032003700018c20007d
:104a2000afb197008180610000882000808f500026
:104a30002c003a003e0090000068a30007003200fe
:104a40004fb19700010320000e007800a9f807007d
:104a50000000e00006003a00080037008e007800f1
:104a60000003200039f50700e10f40000300320089
:104a70004fb297000402e800c4b79f003e009000c8
:104a80002fb197000202b2000068a3000a003200b2
:104a9000810720000200e0000100320081052000b3
:104aa0004fb197000e00780092f807000000e00078
:104ab00009003a000b003700800720000200e000e8
:104ac00001003200800520008e0078001ff50700ed
:104ad000e10f400003003200cfb297008502e800ea
:104ae000c5b79f005fa897000000e000ac0032004f
:104af00000047800cfb497003e0090000068a30047
:104b00000700320009017800010320000e00780040
:104b100078f807000000e00006003a0006003700c1
:104b20008e0078000003200008f50700e10f400028
:104b3000010032008904e8000804e900eeff3a00b1
:104b4000d8af9f00c9b79f0095003700dfa8970036
:104b50000100e000190032002fb197000238a300d5
:104b600016003a0001047800cfb497003e00900090
:104b70000068a3000700320009017800010220004c
:104b80000e0078005bf807000000e00006003a0025
:104b9000060037008e00780000022000ebf40700ca
:104ba000e10f4000010032008904e8000804e90038
:104bb000eeff3a00d8af9f00c9b79f00afb1970092
:104bc000618161000318a300190032003e009000cb
:104bd0000068a3000a003200b10220000200e000d9
:104be000010032008180e8004fb197000e0078008c
:104bf00040f807000000e00009003a0020003700fc
:104c0000b00220000200e000010032000080e80055
:104c10008e007800cdf40700e10f4000180032004c
:104c20004fb297000402e800c4b79f001400370099
:104c30000200e000120032003e0090000068a30075
:104c4000070032004fb19700010220000e007800eb
:104c500028f807000000e00006003a0008003700ce
:104c60008e00780000022000b8f40700e10f400039
:104c700003003200cfb297008502e800c5b79f005d
:104c8000008c2000afb097000080600001842000fd
:104c9000810f500013003a003e0090000068a3000e
:104ca000070032004fb19700010320000e0078008a
:104cb00010f807000000e00006003a003800370056
:104cc0008e00780000032000a0f40700e10f4000f0
:104cd000330032004fb197000201e800c2b79f00d5
:104ce0002f00370001882000810f50002c003a006f
:104cf0003e0090000068a300070032004fb197000b
:104d0000010320000e007800faf707000000e00021
:104d100006003a00080037008e00780000032000eb
:104d20008af40700e10f400003003200cfb1970082
:104d30008301e800c3b79f003e0090002fb19700a9
:104d40000202b2000068a3000a00320081072000be
:104d50000200e00001003200810520004fb1970001
:104d60000e007800e3f707000000e00009003a00b9
:104d70000b003700800720000200e0000100320035
:104d8000800520008e00780070f40700e10f4000dd
:104d9000030032004fb297000402e800c4b79f003e
:104da0008fb297000502e9006320b9000001780086
:104db00092b79f004222dd00e0fe22000002420086
:104dc0008aaf9f009baf9f0004047800bfac9700a0
:104dd0005f0037008fb097008100e90081b79f0026
:104de00000042000808f54003800320003003c0093
:104df0000900e000070032003e00370000082000f4
:104e0000808f540020003200000c2000808f54005e
:104e100038003a002fb197000200e000030035008f
:104e2000afb197000348a3000c0032001805be0084
:104e30000a01be000c00be00a7ef0700a0cf9f0034
:104e40000000fb00cf80de000a01be005e0107000b
:104e50000006560081865e000700370018017800c2
:104e6000110009000286d800a200200011000900ec
:104e70000280d800a1cf9f002fca97000443b00042
:104e8000a4cf9f001b00370050fd2200afb2970057
:104e90000558a3000100320040fc2200e1fe220080
:104ea000810054000c01be008100e90003003300c2
:104eb0008301d1000281d300fbff37006f01610045
:104ec00060417900a2cf9f000a0037000c00be00ad
:104ed0001fb197000201e900030033008100d100f7
:104ee0000080d300fbff3700674060000043b00044
:104ef000a0cf9f00be009000afc997000300fb0049
:104f00000168a300070032004fb1970080007800cd
:104f10000e00780077f707000000e00005003a0077
:104f2000070037008e00780008f40700e10f40000a
:104f3000030032004fb297000402e800c4b79f009c
:104f40009fb29700e382520095b79f00640454001b
:104f50000fb097000000e0009eff3a000fad9700f1
:104f60009fad9700afb097000138a3001800320042
:104f70005fa997000200e0001500340002047800e9
:104f8000cfb497003e0090000068a30007003200f5
:104f900009017800010220000e00780055f7070093
:104fa0000000e00006003a00060037008e0078009e
:104fb00000022000e5f30700e10f4000010032008d
:104fc0008904e8000804e900eeff3a00c9b79f0031
:104fd000afa9970013407800a0cf9f000004e00025
:104fe00059f73a004fb097004f0778004f06be00c0
:104ff0004f05be004f04be00af02b1000000060026
:105000000200fa00889fbe00a0ff9f000104780004
:10501000380090000068a30033003a00e20060000e
:1050200005003a000003b300300498001104980012
:105030000080eb002e003700d80490000900e0004b
:1050400006003a0012002000e68057004800900059
:105050008cee07001904980023003700a800900088
:105060000100e00008003a00f13823002104980014
:10507000010c7800210020005104980011049800d0
:105080000030a0003004980018019000a8009000a3
:10509000480090007bee0700280090008080eb0025
:1050a00011049800aff8970001487800000ce80060
:1050b0002ff89700ea4f50000b003a00380090009c
:1050c0000088a3000800320018019000a80090009a
:1050d000480090006bee07000000eb001004980001
:1050e000a8009000010c7800aff897000100fb00c9
:1050f0004f04be000080fa0000000600889fbe003a
:105100008a1f780001057800800478000004eb0015
:10511000010037000804e800b94078000104e0000d
:10512000050032008100fb000a007800b5f407009a
:105130000000e000f7ff3200080078004f0578001b
:105140004f04be0000000600889fbe008a1f780042
:1051500001057800800478000004eb0001003700ae
:105160000804e800b94078000104e00005003200be
:105170008100fb000a007800a2f407000000e000b4
:10518000f7ff3a00080078004f0578004f04be0092
:1051900000000600889fbe008a9fbe008c1f78001a
:1051a000aeef0700b5ef330003866c006450e100fa
:1051b0002e0032006420e100330032006150e10033
:1051c0002f0032006120e10031003200858555005a
:1051d000eb07b0000900200008042000050037009c
:1051e0000804440089844c000a003100060343008f
:1051f00087834b000001530081815b00f8ff33007f
:105200000203be000800a0000804440089844c008a
:10521000f6ff3900c639dd0083017300010032005a
:10522000130020008904d1000884d3000998a3004a
:10523000050032000800a7000300a0008904d10087
:105240000884d3008b05e8008904d1000884d300ca
:105250000001eb000281d2005aef070001f0a1002b
:105260000cf0a70001f0a0008def37006420e100f2
:105270008fef32000801be000200be00f7ff3700ca
:105280006120e1008aef32006000b800f3ff3700d0
:105290000000200001f82700f0ff37000001be00e9
:1052a00044ee07000470a70003f0a10003f8a30078
:1052b00013003a006509b100100032000900350002
:1052c0006928e10002003500010028000000050007
:1052d00000004000818048008502e900fcff3a00a0
:1052e00000000600f88f4200050035008100d10063
:1052f0000080d3008502e800fcff3a0000000600b1
:105300008000eb000000050004002000e3ee370001
:105310003300070005097800000006001400fa00b9
:10532000889fbe008a9fbe008c9fbe000005be0005
:105330000206be00680047000c90be000a90be0046
:10534000340007006400e1001a00320016003e003d
:105350006100e1001a0032006e049000fe0490002b
:105360000e0b90009e0b90006011b8009e059000ff
:105370000b38b100d5012000828171006101640009
:105380008703d1000683d3008984d3000884d30027
:105390008502e900f8ff3a000aef07000df0a700c8
:1053a00001f0a00056003700f1ff2700f0ff2f00aa
:1053b0005300370001f8270000002000f7ff3700f6
:1053c0006000b800f5ff3700020ab900001bb90001
:1053d0000200b80081004200810043000000060086
:1053e0000003be00f3ed07006220e100020032007e
:1053f0000600be0005000500e507b100f107b20098
:1054000004f023008480700007f0a70001f0a000e2
:1054100024000500800078005002be005003be004a
:105420004439de00f700b200f37f20000301610081
:10543000090032000218e10016003a0085017200ee
:1054400083017300838173000008200015003a0077
:1054500040002000130037008501720083017300b3
:105460008381730005003a0004a8be0006a8be00b0
:10547000100020000b0037000201e9000402420086
:1054800085824a0006034b0087834b000748a30030
:10549000f9ff32000740a00004a8be0006a8be0025
:1054a0002000200080009800920098000000060074
:1054b000680447000294be000094be00fc0447004c
:1054c0008694be008494be0009007800d1ff0700d6
:1054d00008007800cfff070099007800814f700026
:1054e0000b003b000800be000a0007004f00b1009f
:1054f00003003700f3ff2700f2ff2f006110b9000f
:105500004f06be004f05be004f04be000080fa00eb
:1055100000000600e48240001078a300070032007b
:10552000640240001178a3003400be001401be00e4
:10553000040032000330a700000006003500be0062
:0c5540001501be000330a00000000600b2
:020000040000fa
:10554c00202000004d410000494e00003a20000090
:10555c00507200006f76000069730000696f0000e4
:10556c006e6900006e670000204300006f6d000044
:10557c00706c000065740000651b00005b3000005f
:10558c006d000000202000004d510000545400001c
:10559c003a200000436f00006e6e0000656300004f
:1055ac00746900006f6e0000206c00006f730000c7
:1055bc007420000050550000424c0000495300007c
:1055cc004820000066610000696c00006564000002
:1055dc001b5b0000306d000000200000204d00001f
:1055ec00414900004e3a000020730000656e000037
:1055fc0064200000707200006f7000006572000083
:10560c00747900001b5b0000306d0000002000006e
:10561c00204d0000414900004e3a00002046000099
:10562c00616900006c2000006765000074200000b8
:10563c0074770000696e0000206400006f63000046
